:100000000C9446000C945D000C945D000C945D0013
:100010000C945D000C945D000C945D000C945D00EC
:100020000C945D000C945D000C945D000C945D00DC
:100030000C945F000C945D000C945D000C945D00CA
:100040000C945D000C945D000C945D000C945D00BC
:100050000C945D000C945D000C945D000C945D00AC
:100060000C945D000C945D000C945D000C945D009C
:100070000C945D000C945D000C945D000C945D008C
:100080000C945D000C945D000C945D0011241FBE67
:10009000CFEFD0E1DEBFCDBF11E0A0E0B1E0E8E0FE
:1000A000F1E000E00BBF02C007900D92A030B10755
:1000B000D9F70E9470000C9482000C9400001F92EB
:1000C0000F920FB60F9211241DBC1CBC1B9B02C0CB
:1000D0001B9801C01B9A0F900FBE0F901F90189590
:1000E00088E082B983B1887083B91EBC8DE38BBD73
:1000F00089E08ABD1FBC84E08EBD87B7806187BF61
:080100007894FFCFF894FFCFC3
:00000001FF
